{
  "_format": "hh-sol-artifact-1",
  "contractName": "Counter",
  "sourceName": "contracts/Counter.sol",
  "abi": [
    {
      "inputs": [],
      "name": "counter",
      "outputs": [
        {
          "internalType": "int256",
          "name": "",
          "type": "int256"
        }
      ],
      "stateMutability": "view",
      "type": "function"
    },
    {
      "inputs": [],
      "name": "dec",
      "outputs": [],
      "stateMutability": "nonpayable",
      "type": "function"
    },
    {
      "inputs": [],
      "name": "get",
      "outputs": [
        {
          "internalType": "int256",
          "name": "",
          "type": "int256"
        }
      ],
      "stateMutability": "view",
      "type": "function"
    },
    {
      "inputs": [],
      "name": "inc",
      "outputs": [],
      "stateMutability": "nonpayable",
      "type": "function"
    }
  ],
  "bytecode": "0x60806040526000805534801561001457600080fd5b50610206806100246000396000f3fe608060405234801561001057600080fd5b506004361061004c5760003560e01c8063371303c01461005157806361bc221a1461005b5780636d4ce63c14610079578063b3bcfa8214610097575b600080fd5b6100596100a1565b005b6100636100bc565b60405161007091906100ff565b60405180910390f35b6100816100c2565b60405161008e91906100ff565b60405180910390f35b61009f6100cb565b005b60016000808282546100b39190610149565b92505081905550565b60005481565b60008054905090565b60016000808282546100dd919061018d565b92505081905550565b6000819050919050565b6100f9816100e6565b82525050565b600060208201905061011460008301846100f0565b92915050565b7f4e487b7100000000000000000000000000000000000000000000000000000000600052601160045260246000fd5b6000610154826100e6565b915061015f836100e6565b9250828201905082811215600083121683821260008412151617156101875761018661011a565b5b92915050565b6000610198826100e6565b91506101a3836100e6565b92508282039050818112600084121682821360008512151617156101ca576101c961011a565b5b9291505056fea2646970667358221220a012cb38c6e7e014f3760906a67a26e28b2af43906336892b6d4479f484e777f64736f6c63430008130033",
  "linkReferences": {},
  "deployedLinkReferences": {}
}